:020000040000fa
:080000000002040000000000f2
:020000040000fa
:100400006f6621000eff22000e0188000000000030
:100410000c00070060752000010020000f0007009d
:10042000000020000000e000020032000000020096
:10043000000000005a040200000000000040da0042
:100440000000fe00000020000000e000020032007a
:10045000000020009001880000000600a102880032
:10046000800078000000eb001a003700e2804000b6
:1004700054a0b4009101ba00e280400054a0b4003e
:100480009102ba00e280400054a0b4000002eb00e8
:10049000472bde00f507b200a6018800602ce100c2
:1004a00008003a000049eb000201e80002003900b0
:1004b0003420ec0002f0a0008301e900f9ff3e00c7
:1004c000040037006128e100010032000082eb00e7
:1004d000040007001101ba000200e000e3ff3a0047
:1004e0000000060004d0a300e20f49001c00390000
:1004f000810278003549ba000201e80002003900a3
:100500003420ec0002f0a0008301e9000f0032006b
:100510002549ba000201e800020039003420ec004d
:1005200002f0a0008301e900080032000400e000ae
:100530000600320015c9ba000201e80002003900c5
:100540003420ec0002f0a0008301e9008180e80083
:1005500054a0b4000300e000e2ff3a0000000600ef
:100560009102ba00055978008301e900f7ff3200d3
:10057000c82ade00055978008301e900f3ff320044
:100580000400e000f1ff320011d9ba00eeff37009d
:080590000040da000000fe004b
:020000040000fa
:020000040001f9
:045fe000cfff0000ef
:020000040000fa
:020000040001f9
:045fe400efff0000cb
:020000040000fa
:020000040001f9
:045fe80079ff00003d
:020000040000fa
:020000040001f9
:045fec005bff000057
:020000040000fa
:020000040001f9
:045ff00078ff000036
:020000040000fa
:020000040001f9
:045ff400cfff0000db
:020000040000fa
:1000080002100000061000000a1000000e10000088
:1000180012100000161000001a1000001e10000038
:1000280022100000261000002a1000002e100000e8
:1000380032100000361000003a1000003e10000098
:1000480042100000461000004a1000004e10000048
:1000580052100000561000005a1000005e100000f8
:1000680062100000661000006a1000006e100000a8
:1000780072100000761000007a1000007e10000058
:1000880082100000861000008a1000008e10000008
:1000980092100000961000009a1000009e100000b8
:1000a800a2100000a6100000aa100000ae10000068
:1000b800b2100000b6100000ba100000be10000018
:1000c800c2100000c6100000ca100000ce100000c8
:1000d800d2100000d6100000da100000de10000078
:1000e800e2100000e6100000ea100000ee10000028
:1000f800f2100000f6100000fa100000fe100000d8
:1001080002110000061100000a1100000e11000083
:1001180012110000161100001a1100001e11000033
:1001280022110000261100002a1100002e110000e3
:1001380032110000361100003a1100003e11000093
:1001480042110000461100004a1100004e11000043
:1001580052110000561100005a1100005e110000f3
:1001680062110000661100006a1100006e110000a3
:1001780072110000761100007a1100007e11000053
:1001880082110000861100008a1100008e11000003
:1001980092110000961100009a1100009e110000b3
:1001a800a2110000a6110000aa110000ae11000063
:1001b800b2110000b6110000ba110000be11000013
:1001c800c2110000c6110000ca110000ce110000c3
:1001d800d2110000d6110000da110000de11000073
:1001e800e2110000e6110000ea110000ee11000023
:1001f800f2110000f6110000fa110000fe110000d3
:1002080002120000061200000a1200000e1200007e
:1002180012120000161200001a1200001e1200002e
:1002280022120000261200002a1200002e120000de
:1002380032120000361200003a1200003e1200008e
:1002480042120000461200004a1200004e1200003e
:1002580052120000561200005a1200005e120000ee
:1002680062120000661200006a1200006e1200009e
:0c02780072120000761200007a120000e2
:020000040000fa
:100598000000fa00a0002000401188002062a90095
:1005a8000080fa00000006000000fa00f0cf2f00db
:1005b8002022b60021e2a8002342a8000080fa0009
:1005c800000006000000fa0021e2a9002342a90069
:1005d8000080fa00000006000000fa00f9ff07009a
:1005e8002136800000f82f0000806000a002b300d0
:1005f8002036880041348000f00f2c000080600015
:100608000080a0004034880000402800310020000d
:10061800dfff070090ff2f002022b6002002a9006c
:10062800e1ff07000080fa00000006000000fa0061
:100638008f0107000080fa00000006000000fa00a1
:100648000210200001408000828060000200320019
:100658000048eb000d0037002242ab0002003200d8
:10066800311180000000fe002222ab00020032009f
:100678002222a9000000fe002202ab00f1ff320096
:1006880011e1a90031118000014878000080fa00ca
:10069800000006000000fa00889fbe008a9fbe0086
:1006a8008c1f7800000578000204be008005eb006e
:1006b800fc1f20008800780009007800d801070096
:1006c800014d78004881de001245980020459800c9
:1006d8006305450062044400e0844c008b05e80093
:1006e8008c8f5500f3ff34004f0678004f05be008d
:1006f8004f04be000080fa00000006000000fa0067
:10070800022020001111800082806000fdff3a0065
:100718000000fb00201188000080fa00000006009d
:100728000000fa00889fbe008a1f78000005780044
:1007380081047800e08f5400070034000004eb00c7
:100748000801450012407800ecff07000804e800a3
:10075800888f5400faff3c004f0578004f04be0014
:100768000080fa00000006000600fa00889fbe001c
:100778008a9fbe008c9fbe00000f78000204be0056
:100788000000eb002007980080007800110798000f
:100798001e017800ae01900083004100010078003e
:1007a800304278000481fb0005f02f008a81620046
:1007b80002817100104078000080fb004800dd00d5
:1007c800f30f200003016100000571008180e8003b
:1007d800914078000180fb000b81620000017100ec
:1007e80003016100820578002e0290006300420038
:1007f8009e0278000082420084007800b1417800af
:100808000380fb0005f02f008c81620000807100de
:10081800914078008180fb00c808dd00f50f2000ba
:1008280085016000018671000480e80010407800ae
:100838000080fb0001f02f000d82600000027200b2
:100848000502620084067800ae019000e68141004e
:10085800230798008c0278008a01780088007800c5
:10086800090078006401070012002400880078005d
:10087800090078004501070064044400e0844c0046
:100888001e0290000482e80014079800f01f200060
:10089800800f5200beff34004f06be004f05be0059
:1008a8004f04be000080fa00000006000e00fa00a7
:1008b800889fbe008a9fbe008c9fbe000000eb0090
:1008c80080088800900888000011880057ff0700fa
:1008d80040a7a90002002100030020008200780040
:1008e800030078004e0107000004be0040c7ab00bb
:1008f8000100320050010700e04f540004003200ac
:100908004007ab0003003a0040e7ab0001003a00a3
:10091800490107001061a8000108a9002108a900e1
:10092800f00f2000010020000801600003002000f3
:10093800800f5100818f59000c0032000804fb0021
:10094800cfc4de0001a025008148b800222620007f
:100958008241b800020040000144b8008904400008
:10096800790888006808880011e1a8001aff0700c4
:10097800e40647000e00780030ff07001e417800ab
:100988000201fb00cf91de00f30f5100e08f590008
:1009980080003e00020601007c0037007d00370021
:1009a80011003700200037007a003700790037003f
:1009b80078003700620037007200370042003700c5
:1009c8007400370073003700720037007100370079
:1009d800700037006f0037006e0037004f00370097
:1009e8006c003700540037000e80e80013ff070042
:1009f8006300470011ff07000d0078000fff070094
:100a08008040eb00514798001e019000ae01900015
:100a1800000021001fff07000160200000002100e6
:100a28003fff0700d3ff37006600470003ff0700ba
:100a38006700470001ff070068004700fffe070046
:100a48008040eb00114f98000004eb000a002100e1
:100a5800f95f20000a004400f8fe07000804e800d7
:100a6800890f5400fbff34003e019000ce01900036
:100a7800f17f20008280600008003a00f0bf20006b
:100a8800800f5100e08f59000c003600320024001e
:100a9800be0090004e009000f20007003e0190005a
:100aa800ce019000f0bf2000800f5100e08f590068
:100ab80002003600000021002bff070010c0b30021
:100ac8000eff0700abff370002002000f30f2000e5
:100ad8008200780003007800d100070050079800d2
:100ae80061079800410020006a0047000cff0700da
:100af80022002000f30f2000820078000300780015
:100b0800c7000700500798006107980041002000bf
:100b18006a00470002ff070096ff370030c0b300a5
:100b2800f6fe07000040eb00f4fe070010c0b3001b
:100b3800f2fe07008fff3700c40007008dff370063
:100b48000004eb00090021003c0220008805e800b1
:100b580009004400b9fe07000885e800098045003f
:100b6800b6fe07006304440009004500b3fe070011
:100b780010c0b300e1fe07008c0f5400f3ff3400ef
:100b88007cff3700b10007007aff3700aa00070092
:100b980078ff37000040eb00d8fe070075ff3700ec
:100ba8000000fa000080fa00000006000200fa00c7
:100bb800ff3ffc00113a8000010f780067016000d8
:100bc8004811dd00f18f2f009e8060008280700048
:100bd8000100a000010f78009e4190008381fb0076
:100be800a20920008107200034742000014a7800ff
:100bf800024a7800034a78009e4078008181fb0011
:100c0800720520006104200024742000014a780045
:100c1800024a7800034a78000000fc004207ab0053
:100c2800feff3a00e14f500002003200e34f50004f
:100c380004003a0002022000113a8000828060001d
:100c4800fdff32008080fb00103a80004c00de007f
:100c580067006000810f5000fbff3a000080fa0037
:100c6800000006000000fa000080fa0000000600fc
:100c78000000fa000040eb00ccff0700413a80007a
:100c880000fc2f0000806000d002b300403a8800ca
:100c9800213a800000fe2f00008060006000b30051
:100ca800203a8800313a800000e02f000080600080
:100cb800900bb300303a8800f0f32f004427b600b9
:100cc80010c0b300b9ff07000080fa00000006005a
:100cd8000000fa000040eb00b4ff070000fc2f0002
:100ce8004827b60000fe2f004427b600313a80009e
:100cf80000e02f0000806000f003b300303a880065
:100d0800f0f32f004427b60010c0b300a7ff070078
:100d18000080fa00000006000000fa000040eb0026
:100d2800a2ff070000fe2f004427b600313a8000da
:100d380000e02f00008060006002b300303a8800b5
:100d4800f0f32f004427b60030c0b30097ff070028
:100d58000080fa00000006000000fa004039880010
:100d68005005200070398800a00a200070398800da
:100d780029e7a800000000000000000029e7af00f4
:100d8800feff37000080fa00000006000000fa00ad
:100d98006039880051398800423988000600fc0013
:100da8005005200070398800a00a2000703988009a
:100db80029e7a800000000000000000029e7af00b4
:100dc800feff37000080fa00000006000000fa006d
:100dd800a0028800810078000080fa000000060068
:100de8000000fa00a00288008308bb008288bb00cc
:100df8000080fa00000006000000fa00a00f2000a2
:100e0800a0028800010020008308bb008298bb0074
:100e18008508bb008498bb000080fa00000006002b
:100e28000000fa00a00288001100ba009180ba0000
:100e38000080fa00000006000000fa000013040019
:100e4800000000000080fa00000006000000fa0020
:100e58004007a80000130400000000000080fa000a
:100e6800000006000000fa00423988006039880056
:100e7800513988000600fc005005200070398800b0
:100e8800a00a20007039880029e7a80000000000a7
:100e98000000000029e7af00feff37000080fa00dd
:040ea8000000060040
:020000040000fa
:040eac000000000042
:00000001FF
