:020000040000fa
:080000000002040000000000f2
:020000040000fa
:100400006fe6200000ff20000001880000000000cf
:100410000c000700c0902000010020001100070020
:10042000000020000000e000020032000000020096
:100430000000000090020200000000000040da000e
:100440000000fe004440a900000020000000e00081
:100450000300320000002000a00188004440a800f2
:100460000000060091018800800078000000eb0089
:1004700015003700e280400032a0b4009101ba00bc
:10048000e280400032a0b4009102ba00e280400055
:1004900032a0b4000002eb00472bde00f507b200eb
:1004a000602ce10004003a000059eb008301e900f0
:1004b000fdff3e00040037006128e100010032002a
:1004c0000082eb00040007001101ba000200e00006
:1004d000e8ff3a00000006003159ba008301e90044
:1004e0000c0032002159ba008301e90008003200f3
:1004f0000400e00003003a00e280400032a0b400b3
:10050000f5ff370011d9ba008301e900faff3a007c
:100510008100e800e180400032a0b4000000060045
:020000040000fa
:0200000401f009
:04000000ffff0000fe
:020000040000fa
:0200000401f009
:04000800ffff0000f6
:020000040000fa
:0200000401f009
:04000c0078ff000079
:020000040000fa
:0200000401f009
:040010005bff000092
:020000040000fa
:0200000401f009
:0400140079ff000070
:020000040000fa
:0200000401f009
:04001800fcff0000e9
:020000040000fa
:0200000401f009
:04001c00dfff000002
:020000040000fa
:10000800020c0000060c00000a0c00000e0c000098
:10001800120c0000160c00001a0c00001e0c000048
:10002800220c0000260c00002a0c00002e0c0000f8
:10003800320c0000360c00003a0c00003e0c0000a8
:10004800420c0000460c00004a0c00004e0c000058
:10005800520c0000560c00005a0c00005e0c000008
:10006800620c0000660c00006a0c00006e0c0000b8
:10007800720c0000760c00007a0c00007e0c000068
:10008800820c0000860c00008a0c00008e0c000018
:10009800920c0000960c00009a0c00009e0c0000c8
:1000a800a20c0000a60c0000aa0c0000ae0c000078
:1000b800b20c0000b60c0000ba0c0000be0c000028
:1000c800c20c0000c60c0000ca0c0000ce0c0000d8
:1000d800d20c0000d60c0000da0c0000de0c000088
:1000e800e20c0000e60c0000ea0c0000ee0c000038
:1000f800f20c0000f60c0000fa0c0000fe0c0000e8
:10010800020d0000060d00000a0d00000e0d000093
:10011800120d0000160d00001a0d00001e0d000043
:10012800220d0000260d00002a0d00002e0d0000f3
:10013800320d0000360d00003a0d00003e0d0000a3
:10014800420d0000460d00004a0d00004e0d000053
:10015800520d0000560d00005a0d00005e0d000003
:10016800620d0000660d00006a0d00006e0d0000b3
:10017800720d0000760d00007a0d00007e0d000063
:10018800820d0000860d00008a0d00008e0d000013
:10019800920d0000960d00009a0d00009e0d0000c3
:1001a800a20d0000a60d0000aa0d0000ae0d000073
:1001b800b20d0000b60d0000ba0d0000be0d000023
:1001c800c20d0000c60d0000ca0d0000ce0d0000d3
:1001d800d20d0000d60d0000da0d0000de0d000083
:1001e800e20d0000e60d0000ea0d0000ee0d000033
:0801f800f20d0000f60d0000fd
:020000040000fa
:10020800020c0000060c00000a0c00000e0c000096
:10021800120c0000160c00001a0c00001e0c000046
:10022800220c0000260c00002a0c00002e0c0000f6
:10023800320c0000360c00003a0c00003e0c0000a6
:10024800420c0000460c00004a0c00004e0c000056
:10025800520c0000560c00005a0c00005e0c000006
:10026800620c0000660c00006a0c00006e0c0000b6
:10027800720c0000760c00007a0c00007e0c000066
:10028800820c0000860c00008a0c00008e0c000016
:10029800920c0000960c00009a0c00009e0c0000c6
:1002a800a20c0000a60c0000aa0c0000ae0c000076
:1002b800b20c0000b60c0000ba0c0000be0c000026
:1002c800c20c0000c60c0000ca0c0000ce0c0000d6
:1002d800d20c0000d60c0000da0c0000de0c000086
:1002e800e20c0000e60c0000ea0c0000ee0c000036
:1002f800f20c0000f60c0000fa0c0000fe0c0000e6
:10030800020d0000060d00000a0d00000e0d000091
:10031800120d0000160d00001a0d00001e0d000041
:10032800220d0000260d00002a0d00002e0d0000f1
:10033800320d0000360d00003a0d00003e0d0000a1
:10034800420d0000460d00004a0d00004e0d000051
:10035800520d0000560d00005a0d00005e0d000001
:10036800620d0000660d00006a0d00006e0d0000b1
:10037800720d0000760d00007a0d00007e0d000061
:10038800820d0000860d00008a0d00008e0d000011
:10039800920d0000960d00009a0d00009e0d0000c1
:1003a800a20d0000a60d0000aa0d0000ae0d000071
:1003b800b20d0000b60d0000ba0d0000be0d000021
:1003c800c20d0000c60d0000ca0d0000ce0d0000d1
:1003d800d20d0000d60d0000da0d0000de0d000081
:1003e800e20d0000e60d0000ea0d0000ee0d000031
:0803f800f20d0000f60d0000fb
:020000040000fa
:100520003200fa000000eb00800888000000eb00b9
:10053000900888000000eb0000118800840107008b
:1005400040a7a90000c0200001002000300798004b
:1005500041079800be0090004e009000060307007f
:10056000500798006107980040c7bf000044b200e0
:100570000004e00001003200070307002e4890004d
:100580000004e0000900320040c7bf006140600085
:100590000004e00006003a0040c7bf0001c8b300f5
:1005a000014060000004e00001003a00fa02070088
:1005b0001061a8008500a9009500a9005e009000c8
:1005c000ee009000f20f20000300200000027800ef
:1005d0008102780002007800830078000001620048
:1005e000018062006102b8005417980065179800f6
:1005f0005e109000ee109000c000dd0000002000b2
:1006000050179800611798005e109000ee1090004f
:100610006112b80054179800651798005e11900099
:10062000ee1190000200700083807000f20f200035
:1006300003002000820f5000838f58001500320005
:100640002e4890000003fb00cfb3de008600780048
:1006500000a02500000ab8002026200000b0b90044
:10066000050178000001410000a0250000b8b90094
:100670000001410082027800540798006507980045
:100680006e009000700888005e009000600888008e
:1006900011e1a800ff000700000037006e004700ce
:1006a0002f0107006e4890000000fb0040179800e3
:1006b000ce119000e78f51009f0032004e12900043
:1006c000e70f52000a003c00ce129000e28f520069
:1006d000140032004e109000e30f5000230032004f
:1006e000ce1090000100e000e5003200e600370087
:1006f0004e119000e90f51006d003200ce119000b4
:10070000e98f5100b10035004e129000f10f5200f8
:1007100080003200ce129000f38f5200840032002d
:10072000d9003700700047000d0107007000470036
:100730000000e8000a010700700047000080e800a0
:10074000070107000040eb00305798000e099000a9
:100750009e09900000802000230107000160200016
:100760000080200046010700ccff370074004700de
:10077000fb000700740047000000e800f8000700d5
:10078000740047000080e800f50007000040eb001f
:10079000705798000000eb00200798000800370011
:1007a0002e00900080007800008020000080400033
:1007b000eb0007002e0090000000e80020079800e2
:1007c000ae009000f05f2000808f5000f4ff3400f6
:1007d0002e089000be089000f23f20000300200089
:1007e000000278008102780002007800830078001f
:1007f00000016200018062006102b8007417980075
:10080000051f98007e1090008e189000c000dd003b
:100810000000200070179800011f98007e109000c3
:100820008e1890006112b80074179800051f980088
:100830007e1190008e19900002007000838070007d
:10084000e00f5000e08f58000b003a002e09900096
:10085000be099000f0bf200001002000800f510071
:10086000818f590004003600ae0890003e089000c9
:1008700022042400530207002e099000be099000b4
:10088000f0bf200001002000800f5100818f59002f
:10089000040036002e099000be0990000080200060
:1008a0001301070010c0b300070107007bff3700ea
:1008b00000002000f10f2000400f9800510f980019
:1008c000ce0890005e0890002b020700600f980091
:1008d000710f98007c00470041002000e8000700ed
:1008e00020002000f10f2000400f9800510f9800c9
:1008f000ce0890005e0890001f020700600f98006d
:10090000710f98007c00470041002000dc000700c8
:1009100062ff370030c0b300eb0007000040eb007f
:10092000e900070010c0b300e70007005bff3700d5
:100930001e02070059ff37000000eb001007980067
:100940001d0037001e00900080007800008020000d
:10095000808040001e0090000000e8001007980012
:10096000010078007e0007001e00900080007800e3
:1009700000802000808040001e0090000000e80001
:100980001007980001007800750007001e00900015
:100990008000780000802000808040001e009000d1
:1009a0000000e80010079800010078006c000700c4
:1009b00010c0b300c40007009e0090003002200069
:1009c000808f5000dfff340034ff37000000eb0061
:1009d000000f780000002000810f20000017980011
:1009e00011179800210037009e0078000080200039
:1009f00000804000104078000004e00013003a003e
:100a00009e00e80000802000008040001040780038
:100a1000406798009e80e800008020000080400031
:100a200010407800506798002e1090003e11900002
:100a30008e1090001e129000800178000400780053
:100a4000c301070000002400ab0107009e017800ed
:100a5000638f41000e1090009e10900062004000d5
:100a6000e08048000017980011179800300220001d
:100a70009e0f1000dcff3400cc01070007ff370099
:100a8000c501070005ff37000040eb008e0007009e
:100a900002ff37000000fa0028000700416a20002a
:100aa0009140780000ceb30000c06000a040b300c9
:100ab000a4e6b700b16c20009140780000ceb300ee
:100ac00000c060003040b300cbe6b7000040280013
:100ad0003100200012000700012220009140780020
:100ae00090cfb30000c0600020e2b7002002a90050
:100af000020007000080fa00000006000000fa0073
:100b000021c2bf00c1cfb3000140600021e2b700a5
:100b100021e2a8002342a8000080fa00000006009d
:100b20000400fa00008fbe00a000200040118800e1
:100b30002062a9000080fa00000006000000fa0010
:100b400021e2a9002342a9000080fa00000006006b
:100b50000000fa001b0107000080fa0000000600f8
:100b60000400fa001007980085c0bf0061406000d3
:100b70000004e000040032009e0090000040eb0002
:100b8000804878001600370022c2bf006440600031
:100b90000004e0000300320030118000004f7800b4
:100ba0000000fe0022c2bf00624060000004e000be
:100bb000020032002222a9000000fe0022c2bf0073
:100bc000614060000004e000e7ff320011e1a9008d
:100bd00030118000804078001e00900001487800ad
:100be0000080fa00000006000c00fa0030079800b0
:100bf00042079800530798000000eb00000f7800b0
:100c00001a003700ce0090005e0090005a010700e5
:100c10001007980021079800ce4090003e009000f9
:100c2000014878003e0090008000e8003e409000bf
:100c3000804878003e0090008080e8002e409000c0
:100c4000804878003e009000630040003007980024
:100c50004e009000de00900062004000e0804800fe
:100c600040079800510798001e0fe800f01f200071
:100c70009e0f1000e3ff34000080fa000000060021
:100c80000600fa0010079800210798000000eb000a
:100c9000000f7800070037001e0078008000780001
:100ca0001e00900000804000104078000600070001
:100cb0001e0fe8002e0090009e0f1000f6ff35007a
:100cc0000080fa00000006000200fa00004f7800e1
:100cd00023c2bf00624060000004e000fcff3a0055
:100ce0001e00fb00201188000080fa0000000600b2
:100cf0001600fa00000f9800120f9800230f9800ba
:100d00000000eb00100798000000eb00000f7800d7
:100d10004d0037001e007800800078000e0890001b
:100d20000080400010407800404798009e00780006
:100d30000e089000008040000000e800104078009d
:100d4000504798009e0078000e08900000804000f8
:100d50000080e80010407800604798000040eb00f9
:100d6000704798001e007800630f40002e0090002e
:100d70003e0190009e0890002e0a900080017800ad
:100d800004007800f20007001e089000ae089000f2
:100d90007f0160006000b8000300200002007000c6
:100da000838070008201200003002000820f500029
:100db000838f580008003a001e089000ae0890008b
:100dc00040079800510798002e009000be00900048
:100dd00060079800710798001e0090000000e00076
:100de000100032001e0090000000e8008000780033
:100df000f0032000008060000000e00009003a00dd
:100e00006e0090007e019000ce0090005e02900087
:100e10008001780004007800cd0007001000240055
:100e2000b50007001e089000ae0890006200400068
:100e3000e0804800100f9800210f98001e009000dd
:100e40000000e800100798009e009000f01f2000ae
:100e5000808f5000afff34000080fa0000000600d1
:100e60000000fa000080fa00000006000400fa000a
:100e700020479800ff3ffc00103a8000000f7800e8
:100e80002e409000674060009e0078000080fb00cc
:100e9000670060004801dd00f08f2f008080600057
:100ea00082807000010f78001e0078000000a00012
:100eb000000f78000e0078000000e8001040780075
:100ec0000081fb0081072000a0092000337420006e
:100ed0008149780080497800824978000e007800c6
:100ee000104078000081fb006104200070052000a4
:100ef0002374200081497800804978008249780075
:100f00000000fc0001003700d5ff070042c7bf000a
:100f1000614060000004e000fbff3a002e409000ba
:100f2000e14f5000050032002e409000e34f50008a
:100f300008003a0001003700c9ff070042c7bf00a0
:100f40000042b2000004e000fbff32000100370065
:100f5000c3ff070043c7bf000080fb004400de0062
:100f6000674060008080fb002e4090000080fb0006
:100f7000808f5000f6ff3a000080fa000000060063
:100f80000000fa000080fa00000006000000fa00ed
:100f900020c0b300b5ff07000080fa000000060083
:100fa0000000fa000040eb00b0ff070048c7bf0098
:100fb00001ccb3000140600048e7b7000080fa00b0
:100fc000000006000000fa000040eb00a7ff070049
:100fd000817420009140780000ccb30000c0600014
:100fe000d1c2b3000140700048e7b700417420004f
:100ff0009140780000ceb30000c060006040b300b4
:1010000044e7b700313a800000e02f000080600024
:10101000910b200001007000303a880044c7bf00e7
:10102000f043b20044e7b70010c0b3008fff0700e1
:101030000080fa00000006000000fa000040eb000b
:101040008aff0700417420009140780000ceb30071
:1010500000c060000024a00044e7b700313a8000df
:1010600000e02f00008060000108200001007000f7
:10107000303a880044c7bf00f043b20044e7b700ed
:1010800030c0b30079ff07000080fa0000000600be
:101090000000fa000040eb0074ff070041742000dc
:1010a0009140780000ceb30000c0600044e7b70074
:1010b000313a800000e02f000080600061022000d3
:1010c00001007000303a880044c7bf00f043b2000e
:1010d00044e7b70030c0b30064ff07000080fa00a7
:1010e000000006000000fa0020c0b3005fff070008
:1010f0000080fa00000006000400fa00000f7800eb
:10110000003b88001e00900050052000303b880006
:10111000a00a2000303b880061e7a8000000000022
:101120000000000061e7af00feff37000080fa001a
:10113000000006000400fa00000f78001107980074
:1011400090018800810078000080fa00000006000d
:101150000800fa00000f7800110798002207980095
:1011600033079800900188008308bb008288bb0089
:101170000080fa00000006000400fa00000f78006a
:1011800011079800900188001100ba009180ba0000
:101190000080fa00000006000000fa00000e0400c3
:1011a000000000000080fa00000006000000fa00c5
:1011b0004007a800000e0400000000000080fa00b4
:1011c000000006000800fa00000f780011079800e0
:1011d000220798003200f800023b88009001880046
:1011e0008108bb003e00900050052000303b880085
:1011f000a00a2000303b880061e7a8000000000042
:101200000000000061e7af00feff37003200f90088
:081210000080fa000000060056
:020000040000fa
:0412180000000000d2
:020000040000fa
:04121c000000fe00d0
:00000001FF
