:020000040000fa
:080000000002040000000000f2
:020000040000fa
:100400006fe620000e7f22000e0188000000000031
:100410000c000700e0702000010020001100070020
:10042000000020000000e000020032000000020096
:100430000000000014040200000000000040da0088
:100440000000fe004440a900000020000000e00081
:100450000300320000002000a00188004440a800f2
:100460000000060091018800800078000000eb0089
:1004700015003700e280400032a0b4009101ba00bc
:10048000e280400032a0b4009102ba00e280400055
:1004900032a0b4000002eb00472bde00f507b200eb
:1004a000602ce10004003a000059eb008301e900f0
:1004b000fdff3e00040037006128e100010032002a
:1004c0000082eb00040007001101ba000200e00006
:1004d000e8ff3a00000006003159ba008301e90044
:1004e0000c0032002159ba008301e90008003200f3
:1004f0000400e00003003a00e280400032a0b400b3
:10050000f5ff370011d9ba008301e900faff3a007c
:100510008100e800e180400032a0b4000000060045
:100520000040da000000fe006022b8000602200051
:100530000000d0008180d2000482d2008582d200e7
:100540000000a0000202520083825a000300310022
:100550000202420083824a000000a1000603e90073
:08056000f3ff3a000000060061
:020000040000fa
:0200000401f009
:04000000ffff0000fe
:020000040000fa
:0200000401f009
:04000400ffff0000fa
:020000040000fa
:0200000401f009
:04000800ffff0000f6
:020000040000fa
:0200000401f009
:04000c0078ff000079
:020000040000fa
:0200000401f009
:040010007bff000072
:020000040000fa
:0200000401f009
:0400140079ff000070
:020000040000fa
:0200000401f009
:04001800fcff0000e9
:020000040000fa
:0200000401f009
:04001c00dfff000002
:020000040000fa
:10000800020c0000060c00000a0c00000e0c000098
:10001800120c0000160c00001a0c00001e0c000048
:10002800220c0000260c00002a0c00002e0c0000f8
:10003800320c0000360c00003a0c00003e0c0000a8
:10004800420c0000460c00004a0c00004e0c000058
:10005800520c0000560c00005a0c00005e0c000008
:10006800620c0000660c00006a0c00006e0c0000b8
:10007800720c0000760c00007a0c00007e0c000068
:10008800820c0000860c00008a0c00008e0c000018
:10009800920c0000960c00009a0c00009e0c0000c8
:1000a800a20c0000a60c0000aa0c0000ae0c000078
:1000b800b20c0000b60c0000ba0c0000be0c000028
:1000c800c20c0000c60c0000ca0c0000ce0c0000d8
:1000d800d20c0000d60c0000da0c0000de0c000088
:1000e800e20c0000e60c0000ea0c0000ee0c000038
:1000f800f20c0000f60c0000fa0c0000fe0c0000e8
:10010800020d0000060d00000a0d00000e0d000093
:10011800120d0000160d00001a0d00001e0d000043
:10012800220d0000260d00002a0d00002e0d0000f3
:10013800320d0000360d00003a0d00003e0d0000a3
:10014800420d0000460d00004a0d00004e0d000053
:10015800520d0000560d00005a0d00005e0d000003
:10016800620d0000660d00006a0d00006e0d0000b3
:10017800720d0000760d00007a0d00007e0d000063
:10018800820d0000860d00008a0d00008e0d000013
:10019800920d0000960d00009a0d00009e0d0000c3
:1001a800a20d0000a60d0000aa0d0000ae0d000073
:1001b800b20d0000b60d0000ba0d0000be0d000023
:1001c800c20d0000c60d0000ca0d0000ce0d0000d3
:1001d800d20d0000d60d0000da0d0000de0d000083
:1001e800e20d0000e60d0000ea0d0000ee0d000033
:0801f800f20d0000f60d0000fd
:020000040000fa
:10020800020c0000060c00000a0c00000e0c000096
:10021800120c0000160c00001a0c00001e0c000046
:10022800220c0000260c00002a0c00002e0c0000f6
:10023800320c0000360c00003a0c00003e0c0000a6
:10024800420c0000460c00004a0c00004e0c000056
:10025800520c0000560c00005a0c00005e0c000006
:10026800620c0000660c00006a0c00006e0c0000b6
:10027800720c0000760c00007a0c00007e0c000066
:10028800820c0000860c00008a0c00008e0c000016
:10029800920c0000960c00009a0c00009e0c0000c6
:1002a800a20c0000a60c0000aa0c0000ae0c000076
:1002b800b20c0000b60c0000ba0c0000be0c000026
:1002c800c20c0000c60c0000ca0c0000ce0c0000d6
:1002d800d20c0000d60c0000da0c0000de0c000086
:1002e800e20c0000e60c0000ea0c0000ee0c000036
:1002f800f20c0000f60c0000fa0c0000fe0c0000e6
:10030800020d0000060d00000a0d00000e0d000091
:10031800120d0000160d00001a0d00001e0d000041
:10032800220d0000260d00002a0d00002e0d0000f1
:10033800320d0000360d00003a0d00003e0d0000a1
:10034800420d0000460d00004a0d00004e0d000051
:10035800520d0000560d00005a0d00005e0d000001
:10036800620d0000660d00006a0d00006e0d0000b1
:10037800720d0000760d00007a0d00007e0d000061
:10038800820d0000860d00008a0d00008e0d000011
:10039800920d0000960d00009a0d00009e0d0000c1
:1003a800a20d0000a60d0000aa0d0000ae0d000071
:1003b800b20d0000b60d0000ba0d0000be0d000021
:1003c800c20d0000c60d0000ca0d0000ce0d0000d1
:1003d800d20d0000d60d0000da0d0000de0d000081
:1003e800e20d0000e60d0000ea0d0000ee0d000031
:0803f800f20d0000f60d0000fb
:020000040000fa
:100568000001be0000a0250021262000ecff0700a6
:100578006f016000e70f5100050036004c09dd00ef
:100588004400de0000007100c408de0006003700e9
:100598004c09dd004400de0000007100c408de00e4
:1005a80061005000e0805800401188002062a900d6
:1005b80000000600f0cf2f002022b60021e2a8009c
:1005c8002342a8000000060021e2a9002342a90056
:1005d80000000600fcff070000102e0001002000ac
:1005e800dfff070090ff2f002022b6002002a9009d
:1005f800f0ff070000000600a20107000000060047
:100608000210200021048000828060000200320075
:100618000048eb000d0037002242ab000200320018
:10062800311180000000fe002222ab0002003200df
:100638002222a9000000fe002202ab00f1ff3200d6
:1006480011e1a9003111800001487800000006007e
:10065800889fbe008a9fbe008c1f78000005780026
:100668000204be008005eb00fc1f20008800780013
:1006780009007800cd010700014d78004881de00af
:10068800124598002045980063054500620444001f
:10069800e0844c008b05e8008c8f5500f3ff340094
:1006a8004f0678004f05be004f04be00000006004c
:1006b800022020001111800082806000fdff3a00b6
:1006c8000000fb002011880000000600889fbe0083
:1006d8008a1f78008004780001057800e00f550033
:1006e800060034000004eb0069407c00f0ff0700be
:1006f8000804e800880f5500fbff3c004f05780010
:100708004f04be0000000600ea874700889fbe002d
:100718008a9fbe008c9fbe008e1f7800000778005d
:100728000204be000006eb008c0678006e407e00d6
:100738000080fb0002f02f008a006100008070003a
:100748008c01470093409000c808dd00f20f20009c
:100758000200600001057000234090000080fb004b
:1007680003f02f008b8061000080700002016000a0
:1007780082057800630646008a01780088007800c0
:1007880009007800850107007f006400f80f500019
:1007980006003a000800be00f0b79f0081bf9f0026
:1007a8000a01be00d2b79f00e3b79f00e08f560052
:1007b800110032008d06e8000d007800f003b20049
:1007c80007003a00dfb197006fb19700ffb09700bc
:1007d8000fb897007101070010002400610107009d
:1007e80062044400e0844c00f01f2000808f560013
:1007f800ceff34000400370062044400e0844c005b
:100808001d002000c9ff37004f0778004f06be00c3
:100818004f05be004f04be00af00b1000000060047
:10082800f2874700889fbe008a9fbe008c9fbe004b
:100838008e1f78000000eb00800888009008880070
:10084800001188006cff070040a7a90002c0200023
:10085800030020008200780003007800530107009d
:100868000004be0040c7ab0001003200530107007e
:10087800e04f5400040032004007ab0003003a0088
:1008880040e7ab0001003a004c0107001061a800e6
:100898008500a9009500a900f00f200001002000a4
:1008a8000801600003002000800f5100818f59006b
:1008b8000c0032000804fb00cfc4de0000a02500b5
:1008c80000cab9002226200002c1b9000401410073
:1008d8000040b800010141007208880060088800e3
:1008e80011e1a8003bff07007a80570080bf9f00f6
:1008f8007e80570042ff07002fe197000201fb00ae
:10090800cf91de00f30f5100e08f5900a1003e00a7
:10091800026001009d0037009e003700110037007b
:10092800200037009b0037009a00370099003700f5
:100938006200370072003700420037009500370028
:100948009400370093003700920037009100370079
:10095800900037008f0037004f0037008d003700b8
:10096800540037007c80570025ff07007b80570024
:1009780023ff07000fb8970021ff07008040eb0016
:10098800f1e79f002fb19700bfb1970000802000ca
:100998002fff070001602000008020004bff0700a8
:1009a800d3ff37007880570015ff0700778057007e
:1009b80013ff07007680570011ff07008040eb0007
:1009c800b1ef9f000004eb000a802000f95f2000cf
:1009d8000a0044000aff07000804e800890f5400d1
:1009e800fbff34004fb19700dfb197008200780019
:1009f800f13fb20008003a00f0bf2000800f51001c
:100a0800e08f59000c00360022042400cfb0970074
:100a18005fb09700f00007004fb19700dfb1970073
:100a2800f0bf2000800f5100e08f5900020036000f
:100a38000080200034ff070010c0b3001cff07002f
:100a4800abff370002002000f30f2000820078007f
:100a580003007800d5000700e0b79f00f1b79f00ba
:100a6800410020007480570018ff07002200200072
:100a7800f30f20008200780003007800cb00070005
:100a8800e0b79f00f1b79f00410020007480570035
:100a98000eff070096ff370030c0b30004ff0700c1
:100aa8000040eb0002ff070010c0b30000ff070082
:100ab8008fff3700c40007008dff37000004eb00ec
:100ac800098020003e0220008805e8000900440053
:100ad800cbfe07000885e80009804500c8fe07002e
:100ae8006304440009004500c5fe070010c0b300b8
:100af800effe07008e0f5400f3ff34007cff370031
:100b080008002000890f20000005eb000ef02f00e0
:100b1800fb0f200001802000e1407d00e0cf500065
:100b280012003a008a00e80002802000e2c0780043
:100b38008180fb008c016700818071008a81e80058
:100b4800e2c17900c819dd008b80600083817000e4
:100b5800030678000d017800880078000900780005
:100b68008e000700000024007e0007006305450092
:100b780062044400e0844c0031022000810f5500db
:100b8800e4ff34009000070059ff37008b0007008e
:100b980057ff37000040eb00c5fe070054ff370041
:100ba800000006000200fa00ff3ffc00113a800036
:100bb800f1bf9f00670160004811dd00f18f2f0031
:100bc800ffb9970081806100828070000100a00059
:100bd800f1bf9f00fff997008381fb00a209200065
:100be8008107200034742000014a7800024a780006
:100bf800034a7800eff897008181fb007205200016
:100c08006104200024742000014a7800024a780018
:100c1800034a78000000fc004207ab00feff3a00e0
:100c2800e14f500002003200e34f500004003a0048
:100c380002022000113a800082806000fdff32002d
:100c48008080fb00103a80004c00de0067006000e6
:100c5800810f5000fbff3a000080fa0000000600f8
:100c68000000060020c0b300ceff07000000060009
:100c78000040eb00cbff070000fc2f004827b60020
:100c8800000006000040eb00c6ff0700413a800064
:100c980000fc2f0000806000d002b300403a8800ba
:100ca800213a800000fe2f00008060006000b30041
:100cb800203a8800313a800000e02f000080600070
:100cc800900bb300303a8800f0f32f004427b600a9
:100cd80010c0b300b3ff0700000006000040eb009f
:100ce800b0ff0700213a800000fe2f00008060005e
:100cf8000020a000203a8800313a800000e02f0050
:100d0800008060000070a000303a8800f0f32f00e7
:100d18004427b60030c0b300a2ff07000000060059
:100d28000040eb009fff070000fe2f004427b6009d
:100d3800313a800000e02f00008060006002b300bc
:100d4800303a8800f0f32f004427b60030c0b300d3
:100d580094ff07000000060020c0b30091ff0700c1
:100d680000000600003b880050052000303b88004a
:100d7800a00a2000303b880061e7a80000000000be
:100d88000000000061e7af00feff3700000006002a
:100d9800900188008100780000000600900188001a
:100da8008308bb008288bb00000006009001880011
:100db8001100ba009180ba0000000600000e04007d
:100dc80000000000000006004007a800000e040014
:100dd80000000000000006003200f800023b880016
:100de800900188008108bb0050052000303b880036
:100df800a00a2000303b880061e7a800000000003e
:100e08000000000061e7af00feff37003200f90084
:040e180000000600d0
:020000040000fa
:040e1c0000000000d2
:00000001FF
